{
  "_format": "hh-sol-artifact-1",
  "contractName": "CharityHub",
  "sourceName": "contracts/CharityHub.sol",
  "abi": [
    {
      "inputs": [],
      "stateMutability": "nonpayable",
      "type": "constructor"
    },
    {
      "inputs": [
        {
          "internalType": "uint256",
          "name": "",
          "type": "uint256"
        }
      ],
      "name": "campaigns",
      "outputs": [
        {
          "internalType": "string",
          "name": "title",
          "type": "string"
        },
        {
          "internalType": "string",
          "name": "description",
          "type": "string"
        },
        {
          "internalType": "address",
          "name": "creator",
          "type": "address"
        },
        {
          "internalType": "uint256",
          "name": "targetValue",
          "type": "uint256"
        },
        {
          "internalType": "uint256",
          "name": "deadline",
          "type": "uint256"
        },
        {
          "internalType": "uint256",
          "name": "totalAmountCollected",
          "type": "uint256"
        },
        {
          "internalType": "string",
          "name": "banner",
          "type": "string"
        }
      ],
      "stateMutability": "view",
      "type": "function"
    },
    {
      "inputs": [
        {
          "internalType": "uint256",
          "name": "_campaignId",
          "type": "uint256"
        }
      ],
      "name": "contributeToCampaign",
      "outputs": [],
      "stateMutability": "payable",
      "type": "function"
    },
    {
      "inputs": [
        {
          "internalType": "address",
          "name": "_creator",
          "type": "address"
        },
        {
          "internalType": "string",
          "name": "_title",
          "type": "string"
        },
        {
          "internalType": "string",
          "name": "_description",
          "type": "string"
        },
        {
          "internalType": "uint256",
          "name": "_target",
          "type": "uint256"
        },
        {
          "internalType": "uint256",
          "name": "_deadline",
          "type": "uint256"
        },
        {
          "internalType": "string",
          "name": "_banner",
          "type": "string"
        }
      ],
      "name": "createCampaign",
      "outputs": [
        {
          "internalType": "uint256",
          "name": "",
          "type": "uint256"
        }
      ],
      "stateMutability": "nonpayable",
      "type": "function"
    },
    {
      "inputs": [],
      "name": "fetchAllCampaigns",
      "outputs": [
        {
          "components": [
            {
              "internalType": "string",
              "name": "title",
              "type": "string"
            },
            {
              "internalType": "string",
              "name": "description",
              "type": "string"
            },
            {
              "internalType": "address",
              "name": "creator",
              "type": "address"
            },
            {
              "internalType": "address[]",
              "name": "contributors",
              "type": "address[]"
            },
            {
              "internalType": "uint256[]",
              "name": "contributions",
              "type": "uint256[]"
            },
            {
              "internalType": "uint256",
              "name": "targetValue",
              "type": "uint256"
            },
            {
              "internalType": "uint256",
              "name": "deadline",
              "type": "uint256"
            },
            {
              "internalType": "uint256",
              "name": "totalAmountCollected",
              "type": "uint256"
            },
            {
              "internalType": "string",
              "name": "banner",
              "type": "string"
            }
          ],
          "internalType": "struct CharityHub.Campaign[]",
          "name": "",
          "type": "tuple[]"
        }
      ],
      "stateMutability": "view",
      "type": "function"
    },
    {
      "inputs": [
        {
          "internalType": "uint256",
          "name": "_id",
          "type": "uint256"
        }
      ],
      "name": "fetchDonators",
      "outputs": [
        {
          "internalType": "address[]",
          "name": "",
          "type": "address[]"
        },
        {
          "internalType": "uint256[]",
          "name": "",
          "type": "uint256[]"
        }
      ],
      "stateMutability": "view",
      "type": "function"
    },
    {
      "inputs": [],
      "name": "noOfCampaigns",
      "outputs": [
        {
          "internalType": "uint256",
          "name": "",
          "type": "uint256"
        }
      ],
      "stateMutability": "view",
      "type": "function"
    }
  ],
  "bytecode": "0x6080604052600060015534801561001557600080fd5b50610f8e806100256000396000f3fe6080604052600436106100555760003560e01c80630b7ef89b1461005a578063141961bc1461006f57806317818e59146100ab5780634bc4b603146100cf5780638a2dd930146100f15780639943e3a11461011f575b600080fd5b61006d610068366004610971565b61013f565b005b34801561007b57600080fd5b5061008f61008a366004610971565b610208565b6040516100a297969594939291906109d0565b60405180910390f35b3480156100b757600080fd5b506100c160015481565b6040519081526020016100a2565b3480156100db57600080fd5b506100e46103e9565b6040516100a29190610aaf565b3480156100fd57600080fd5b5061011161010c366004610971565b610799565b6040516100a2929190610bc4565b34801561012b57600080fd5b506100c161013a366004610ceb565b610868565b600081815260208181526040808320600381018054600180820183559186528486200180546001600160a01b0319163317905560048201805491820181558552928420349301839055600281015491519293909290916001600160a01b03169084908381818185875af1925050503d80600081146101d9576040519150601f19603f3d011682016040523d82523d6000602084013e6101de565b606091505b50509050801561020257828260070160008282546101fc9190610dba565b90915550505b50505050565b60006020819052908152604090208054819061022390610dd3565b80601f016020809104026020016040519081016040528092919081815260200182805461024f90610dd3565b801561029c5780601f106102715761010080835404028352916020019161029c565b820191906000526020600020905b81548152906001019060200180831161027f57829003601f168201915b5050505050908060010180546102b190610dd3565b80601f01602080910402602001604051908101604052809291908181526020018280546102dd90610dd3565b801561032a5780601f106102ff5761010080835404028352916020019161032a565b820191906000526020600020905b81548152906001019060200180831161030d57829003601f168201915b505050600284015460058501546006860154600787015460088801805497986001600160a01b0390951697939650919450929161036690610dd3565b80601f016020809104026020016040519081016040528092919081815260200182805461039290610dd3565b80156103df5780601f106103b4576101008083540402835291602001916103df565b820191906000526020600020905b8154815290600101906020018083116103c257829003601f168201915b5050505050905087565b6060600060015467ffffffffffffffff81111561040857610408610c48565b60405190808252806020026020018201604052801561049157816020015b61047e604051806101200160405280606081526020016060815260200160006001600160a01b031681526020016060815260200160608152602001600081526020016000815260200160008152602001606081525090565b8152602001906001900390816104265790505b50905060005b600154811015610793576000806000838152602001908152602001600020905080604051806101200160405290816000820180546104d490610dd3565b80601f016020809104026020016040519081016040528092919081815260200182805461050090610dd3565b801561054d5780601f106105225761010080835404028352916020019161054d565b820191906000526020600020905b81548152906001019060200180831161053057829003601f168201915b5050505050815260200160018201805461056690610dd3565b80601f016020809104026020016040519081016040528092919081815260200182805461059290610dd3565b80156105df5780601f106105b4576101008083540402835291602001916105df565b820191906000526020600020905b8154815290600101906020018083116105c257829003601f168201915b505050918352505060028201546001600160a01b0316602080830191909152600383018054604080518285028101850182528281529401939283018282801561065157602002820191906000526020600020905b81546001600160a01b03168152600190910190602001808311610633575b50505050508152602001600482018054806020026020016040519081016040528092919081815260200182805480156106a957602002820191906000526020600020905b815481526020019060010190808311610695575b505050505081526020016005820154815260200160068201548152602001600782015481526020016008820180546106e090610dd3565b80601f016020809104026020016040519081016040528092919081815260200182805461070c90610dd3565b80156107595780601f1061072e57610100808354040283529160200191610759565b820191906000526020600020905b81548152906001019060200180831161073c57829003601f168201915b50505050508152505083838151811061077457610774610e07565b602002602001018190525050808061078b90610e1d565b915050610497565b50919050565b6000818152602081815260409182902060038101805484518185028101850190955280855260609485949293600401929091849183018282801561080657602002820191906000526020600020905b81546001600160a01b031681526001909101906020018083116107e8575b505050505091508080548060200260200160405190810160405280929190818152602001828054801561085857602002820191906000526020600020905b815481526020019060010190808311610844575b5050505050905091509150915091565b6001546000908152602081905260408120600681015442106108e65760405162461bcd60e51b815260206004820152602d60248201527f54686520646561646c696e652073686f756c64206e6f74206265206e6f77206f60448201526c1c881a5b881d1a19481c185cdd609a1b606482015260840160405180910390fd5b6002810180546001600160a01b0319166001600160a01b038a161790558061090e8882610e85565b506001810161091d8782610e85565b5060058101859055600681018490556008810161093a8482610e85565b50600060078201819055600180549161095283610e1d565b9190505550600180546109659190610f45565b98975050505050505050565b60006020828403121561098357600080fd5b5035919050565b6000815180845260005b818110156109b057602081850181015186830182015201610994565b506000602082860101526020601f19601f83011685010191505092915050565b60e0815260006109e360e083018a61098a565b82810360208401526109f5818a61098a565b6001600160a01b0389166040850152606084018890526080840187905260a0840186905283810360c08501529050610a2d818561098a565b9a9950505050505050505050565b600081518084526020808501945080840160005b83811015610a745781516001600160a01b031687529582019590820190600101610a4f565b509495945050505050565b600081518084526020808501945080840160005b83811015610a7457815187529582019590820190600101610a93565b60006020808301818452808551808352604092508286019150828160051b87010184880160005b83811015610bb657603f1989840301855281516101208151818652610afd8287018261098a565b915050888201518582038a870152610b15828261098a565b91505087820151610b30898701826001600160a01b03169052565b5060608083015186830382880152610b488382610a3b565b9250505060808083015186830382880152610b638382610a7f565b60a0858101519089015260c0808601519089015260e0808601519089015261010094850151888203958901959095529250610ba291508290508361098a565b968901969450505090860190600101610ad6565b509098975050505050505050565b604080825283519082018190526000906020906060840190828701845b82811015610c065781516001600160a01b031684529284019290840190600101610be1565b5050508381038285015284518082528583019183019060005b81811015610c3b57835183529284019291840191600101610c1f565b5090979650505050505050565b634e487b7160e01b600052604160045260246000fd5b600082601f830112610c6f57600080fd5b813567ffffffffffffffff80821115610c8a57610c8a610c48565b604051601f8301601f19908116603f01168101908282118183101715610cb257610cb2610c48565b81604052838152866020858801011115610ccb57600080fd5b836020870160208301376000602085830101528094505050505092915050565b60008060008060008060c08789031215610d0457600080fd5b86356001600160a01b0381168114610d1b57600080fd5b9550602087013567ffffffffffffffff80821115610d3857600080fd5b610d448a838b01610c5e565b96506040890135915080821115610d5a57600080fd5b610d668a838b01610c5e565b9550606089013594506080890135935060a0890135915080821115610d8a57600080fd5b50610d9789828a01610c5e565b9150509295509295509295565b634e487b7160e01b600052601160045260246000fd5b80820180821115610dcd57610dcd610da4565b92915050565b600181811c90821680610de757607f821691505b60208210810361079357634e487b7160e01b600052602260045260246000fd5b634e487b7160e01b600052603260045260246000fd5b600060018201610e2f57610e2f610da4565b5060010190565b601f821115610e8057600081815260208120601f850160051c81016020861015610e5d5750805b601f850160051c820191505b81811015610e7c57828155600101610e69565b5050505b505050565b815167ffffffffffffffff811115610e9f57610e9f610c48565b610eb381610ead8454610dd3565b84610e36565b602080601f831160018114610ee85760008415610ed05750858301515b600019600386901b1c1916600185901b178555610e7c565b600085815260208120601f198616915b82811015610f1757888601518255948401946001909101908401610ef8565b5085821015610f355787850151600019600388901b60f8161c191681555b5050505050600190811b01905550565b81810381811115610dcd57610dcd610da456fea264697066735822122061392bd002d5a684a46e4597d1d6d102166e995784d9f0f75ecbc2cd358d64e164736f6c63430008110033",
  "linkReferences": {},
  "deployedLinkReferences": {}
}