{
  "_format": "hh-sol-artifact-1",
  "contractName": "CharityHub",
  "sourceName": "contracts/CharityHub.sol",
  "abi": [
    {
      "inputs": [],
      "stateMutability": "nonpayable",
      "type": "constructor"
    },
    {
      "inputs": [
        {
          "internalType": "uint256",
          "name": "",
          "type": "uint256"
        }
      ],
      "name": "campaigns",
      "outputs": [
        {
          "internalType": "string",
          "name": "title",
          "type": "string"
        },
        {
          "internalType": "string",
          "name": "description",
          "type": "string"
        },
        {
          "internalType": "address",
          "name": "creator",
          "type": "address"
        },
        {
          "internalType": "uint256",
          "name": "targetValue",
          "type": "uint256"
        },
        {
          "internalType": "uint256",
          "name": "deadline",
          "type": "uint256"
        },
        {
          "internalType": "uint256",
          "name": "totalAmountCollected",
          "type": "uint256"
        },
        {
          "internalType": "string",
          "name": "banner",
          "type": "string"
        }
      ],
      "stateMutability": "view",
      "type": "function"
    },
    {
      "inputs": [
        {
          "internalType": "uint256",
          "name": "_campaignId",
          "type": "uint256"
        }
      ],
      "name": "contributeToCampaign",
      "outputs": [],
      "stateMutability": "payable",
      "type": "function"
    },
    {
      "inputs": [
        {
          "internalType": "address",
          "name": "_creator",
          "type": "address"
        },
        {
          "internalType": "string",
          "name": "_title",
          "type": "string"
        },
        {
          "internalType": "string",
          "name": "_description",
          "type": "string"
        },
        {
          "internalType": "uint256",
          "name": "_target",
          "type": "uint256"
        },
        {
          "internalType": "uint256",
          "name": "_deadline",
          "type": "uint256"
        },
        {
          "internalType": "string",
          "name": "_banner",
          "type": "string"
        }
      ],
      "name": "createCampaign",
      "outputs": [
        {
          "internalType": "uint256",
          "name": "",
          "type": "uint256"
        }
      ],
      "stateMutability": "nonpayable",
      "type": "function"
    },
    {
      "inputs": [],
      "name": "fetchAllCampaigns",
      "outputs": [
        {
          "components": [
            {
              "internalType": "string",
              "name": "title",
              "type": "string"
            },
            {
              "internalType": "string",
              "name": "description",
              "type": "string"
            },
            {
              "internalType": "address",
              "name": "creator",
              "type": "address"
            },
            {
              "internalType": "address[]",
              "name": "contributors",
              "type": "address[]"
            },
            {
              "internalType": "uint256[]",
              "name": "contributions",
              "type": "uint256[]"
            },
            {
              "internalType": "uint256",
              "name": "targetValue",
              "type": "uint256"
            },
            {
              "internalType": "uint256",
              "name": "deadline",
              "type": "uint256"
            },
            {
              "internalType": "uint256",
              "name": "totalAmountCollected",
              "type": "uint256"
            },
            {
              "internalType": "string",
              "name": "banner",
              "type": "string"
            }
          ],
          "internalType": "struct CharityHub.Campaign[]",
          "name": "",
          "type": "tuple[]"
        }
      ],
      "stateMutability": "view",
      "type": "function"
    },
    {
      "inputs": [
        {
          "internalType": "uint256",
          "name": "_id",
          "type": "uint256"
        }
      ],
      "name": "fetchDonators",
      "outputs": [
        {
          "internalType": "address[]",
          "name": "",
          "type": "address[]"
        },
        {
          "internalType": "uint256[]",
          "name": "",
          "type": "uint256[]"
        }
      ],
      "stateMutability": "view",
      "type": "function"
    },
    {
      "inputs": [],
      "name": "noOfCampaigns",
      "outputs": [
        {
          "internalType": "uint256",
          "name": "",
          "type": "uint256"
        }
      ],
      "stateMutability": "view",
      "type": "function"
    }
  ],
  "bytecode": "0x6080604052600060015534801561001557600080fd5b50610f8d806100256000396000f3fe6080604052600436106100555760003560e01c80630b7ef89b1461005a578063141961bc1461006f57806317818e59146100ab5780634bc4b603146100cf5780638a2dd930146100f15780639943e3a11461011f575b600080fd5b61006d610068366004610970565b61013f565b005b34801561007b57600080fd5b5061008f61008a366004610970565b610208565b6040516100a297969594939291906109cf565b60405180910390f35b3480156100b757600080fd5b506100c160015481565b6040519081526020016100a2565b3480156100db57600080fd5b506100e46103e9565b6040516100a29190610aae565b3480156100fd57600080fd5b5061011161010c366004610970565b610799565b6040516100a2929190610bc3565b34801561012b57600080fd5b506100c161013a366004610cea565b610868565b600081815260208181526040808320600381018054600180820183559186528486200180546001600160a01b0319163317905560048201805491820181558552928420349301839055600281015491519293909290916001600160a01b03169084908381818185875af1925050503d80600081146101d9576040519150601f19603f3d011682016040523d82523d6000602084013e6101de565b606091505b50509050801561020257828260070160008282546101fc9190610db9565b90915550505b50505050565b60006020819052908152604090208054819061022390610dd2565b80601f016020809104026020016040519081016040528092919081815260200182805461024f90610dd2565b801561029c5780601f106102715761010080835404028352916020019161029c565b820191906000526020600020905b81548152906001019060200180831161027f57829003601f168201915b5050505050908060010180546102b190610dd2565b80601f01602080910402602001604051908101604052809291908181526020018280546102dd90610dd2565b801561032a5780601f106102ff5761010080835404028352916020019161032a565b820191906000526020600020905b81548152906001019060200180831161030d57829003601f168201915b505050600284015460058501546006860154600787015460088801805497986001600160a01b0390951697939650919450929161036690610dd2565b80601f016020809104026020016040519081016040528092919081815260200182805461039290610dd2565b80156103df5780601f106103b4576101008083540402835291602001916103df565b820191906000526020600020905b8154815290600101906020018083116103c257829003601f168201915b5050505050905087565b6060600060015467ffffffffffffffff81111561040857610408610c47565b60405190808252806020026020018201604052801561049157816020015b61047e604051806101200160405280606081526020016060815260200160006001600160a01b031681526020016060815260200160608152602001600081526020016000815260200160008152602001606081525090565b8152602001906001900390816104265790505b50905060005b600154811015610793576000806000838152602001908152602001600020905080604051806101200160405290816000820180546104d490610dd2565b80601f016020809104026020016040519081016040528092919081815260200182805461050090610dd2565b801561054d5780601f106105225761010080835404028352916020019161054d565b820191906000526020600020905b81548152906001019060200180831161053057829003601f168201915b5050505050815260200160018201805461056690610dd2565b80601f016020809104026020016040519081016040528092919081815260200182805461059290610dd2565b80156105df5780601f106105b4576101008083540402835291602001916105df565b820191906000526020600020905b8154815290600101906020018083116105c257829003601f168201915b505050918352505060028201546001600160a01b0316602080830191909152600383018054604080518285028101850182528281529401939283018282801561065157602002820191906000526020600020905b81546001600160a01b03168152600190910190602001808311610633575b50505050508152602001600482018054806020026020016040519081016040528092919081815260200182805480156106a957602002820191906000526020600020905b815481526020019060010190808311610695575b505050505081526020016005820154815260200160068201548152602001600782015481526020016008820180546106e090610dd2565b80601f016020809104026020016040519081016040528092919081815260200182805461070c90610dd2565b80156107595780601f1061072e57610100808354040283529160200191610759565b820191906000526020600020905b81548152906001019060200180831161073c57829003601f168201915b50505050508152505083838151811061077457610774610e06565b602002602001018190525050808061078b90610e1c565b915050610497565b50919050565b6000818152602081815260409182902060038101805484518185028101850190955280855260609485949293600401929091849183018282801561080657602002820191906000526020600020905b81546001600160a01b031681526001909101906020018083116107e8575b505050505091508080548060200260200160405190810160405280929190818152602001828054801561085857602002820191906000526020600020905b815481526020019060010190808311610844575b5050505050905091509150915091565b6001546000908152602081905260408120600681015442116108e55760405162461bcd60e51b815260206004820152602c60248201527f54686520646561646c696e652073686f756c6420626520612074696d6520696e60448201526b103a343290333aba3ab9329760a11b606482015260840160405180910390fd5b6002810180546001600160a01b0319166001600160a01b038a161790558061090d8882610e84565b506001810161091c8782610e84565b506005810185905560068101849055600881016109398482610e84565b50600060078201819055600180549161095183610e1c565b9190505550600180546109649190610f44565b98975050505050505050565b60006020828403121561098257600080fd5b5035919050565b6000815180845260005b818110156109af57602081850181015186830182015201610993565b506000602082860101526020601f19601f83011685010191505092915050565b60e0815260006109e260e083018a610989565b82810360208401526109f4818a610989565b6001600160a01b0389166040850152606084018890526080840187905260a0840186905283810360c08501529050610a2c8185610989565b9a9950505050505050505050565b600081518084526020808501945080840160005b83811015610a735781516001600160a01b031687529582019590820190600101610a4e565b509495945050505050565b600081518084526020808501945080840160005b83811015610a7357815187529582019590820190600101610a92565b60006020808301818452808551808352604092508286019150828160051b87010184880160005b83811015610bb557603f1989840301855281516101208151818652610afc82870182610989565b915050888201518582038a870152610b148282610989565b91505087820151610b2f898701826001600160a01b03169052565b5060608083015186830382880152610b478382610a3a565b9250505060808083015186830382880152610b628382610a7e565b60a0858101519089015260c0808601519089015260e0808601519089015261010094850151888203958901959095529250610ba1915082905083610989565b968901969450505090860190600101610ad5565b509098975050505050505050565b604080825283519082018190526000906020906060840190828701845b82811015610c055781516001600160a01b031684529284019290840190600101610be0565b5050508381038285015284518082528583019183019060005b81811015610c3a57835183529284019291840191600101610c1e565b5090979650505050505050565b634e487b7160e01b600052604160045260246000fd5b600082601f830112610c6e57600080fd5b813567ffffffffffffffff80821115610c8957610c89610c47565b604051601f8301601f19908116603f01168101908282118183101715610cb157610cb1610c47565b81604052838152866020858801011115610cca57600080fd5b836020870160208301376000602085830101528094505050505092915050565b60008060008060008060c08789031215610d0357600080fd5b86356001600160a01b0381168114610d1a57600080fd5b9550602087013567ffffffffffffffff80821115610d3757600080fd5b610d438a838b01610c5d565b96506040890135915080821115610d5957600080fd5b610d658a838b01610c5d565b9550606089013594506080890135935060a0890135915080821115610d8957600080fd5b50610d9689828a01610c5d565b9150509295509295509295565b634e487b7160e01b600052601160045260246000fd5b80820180821115610dcc57610dcc610da3565b92915050565b600181811c90821680610de657607f821691505b60208210810361079357634e487b7160e01b600052602260045260246000fd5b634e487b7160e01b600052603260045260246000fd5b600060018201610e2e57610e2e610da3565b5060010190565b601f821115610e7f57600081815260208120601f850160051c81016020861015610e5c5750805b601f850160051c820191505b81811015610e7b57828155600101610e68565b5050505b505050565b815167ffffffffffffffff811115610e9e57610e9e610c47565b610eb281610eac8454610dd2565b84610e35565b602080601f831160018114610ee75760008415610ecf5750858301515b600019600386901b1c1916600185901b178555610e7b565b600085815260208120601f198616915b82811015610f1657888601518255948401946001909101908401610ef7565b5085821015610f345787850151600019600388901b60f8161c191681555b5050505050600190811b01905550565b81810381811115610dcc57610dcc610da356fea26469706673582212206a97fbff0d6bffcbb42785b21c22bf398041235a0bf1148f840d59b32a1a24c964736f6c63430008110033",
  "linkReferences": {},
  "deployedLinkReferences": {}
}